:04000000CAEF00F053
:100008003182FACF03F0FBCF04F0E9CF05F0EACF55
:1000180006F0E1CF07F0E2CF08F0D9CF09F0DACF48
:100028000AF0F3CF0BF0F4CF0CF0F6CF0DF0F7CFCA
:100038000EF0F8CF0FF0F5CF10F031C011F032C04C
:1000480012F033C013F034C014F0000E166E000E18
:10005800156E9EAA75D09E9A89B802D0898801D05B
:100068008998AECF2FF0264A272A2A502F18D8A4CD
:1000780014D02B502E18D8A410D02C502D18D8A43A
:100088000CD0000E256E010E246E2DC061F02EC01E
:1000980062F0000E296E020E286E24502510D8B486
:1000A8004BD0284A292A600E2824D96E000E292010
:1000B800DA6E2FC0DFFF0D0E2F18D8A43DD0000E2A
:1000C800256E000E246E000E236E010E226E09D0DE
:1000D800308017D0308215D0000E216E010E206EB0
:1000E80010D028C001F029C002F00250000AD8A49C
:1000F800F3D70150040AD8B4EBD71E0AD8B4EAD70C
:10010800EBD7000E166E000E156E16BE06D01650F2
:100118000FE13D0E155CD8B00BD0600E1524D96EDA
:10012800000E1620DA6E000EDF6E154A162AEDD77D
:10013800000E296E000E286E2EC02DF02FC02EF056
:1001480014C034F013C033F012C032F011C031F0D3
:1001580010C0F5FF0FC0F8FF0EC0F7FF0DC0F6FF87
:100168000CC0F4FF0BC0F3FF0AC0DAFF09C0D9FFC7
:1001780008C0E2FF07C0E1FF06C0EAFF05C0E9FFCB
:1001880004C0FBFF03C0FAFF3192110069EF03F0CE
:100600000061740D0000000E1F6E000E1E6E9AEC4D
:1006100003F08AEC03F09E9A9F9A9D8AF28CF28EE8
:10062000000E1F6E000E1E6E1FBE06D01F5009E189
:10063000020E1E5CD8B005D037EC03F01E4A1F2A0C
:10064000F3D7010E186E060E196E54EC03F07DEC14
:1006500003F08998410E1D6EEE0EE82EFED71D2E7A
:10066000FCD700F000F0898837EC03F0F2D7000ED9
:10067000196E000E186E000E196E000E186E19BE5F
:1006800006D0195010E1640E185CD8B01200210E8B
:10069000176E760EE82EFED7172EFCD700F000F06E
:1006A000184A192AECD712001A0E1A6E000E1B6E89
:1006B00003D01C5094EC03F018C0F6FF19C0F7FFEC
:1006C000184A192A0800F5CF1CF01C50D8B41200A3
:1006D000F0D700EE60F03C0EEE6AE806FDE1306A0D
:1006E00000EE20F0100EEE6AE806FDE13190319246
:1006F000000EF86E000103EF03F00A0E2C6E4F0E91
:100700002B6E4B0E2A6E3090899830A0FED7309019
:1007100089881200AC98AC8AAC84AB88B896200E5D
:10072000AF6E9D8AAB8E1200176E9EA8FED717C0C3
:0E073000ADFF12009298959C89988C8C120057
:020000040020DA
:08000000FFFFFFFFFFFFFFFF00
:020000040030CA
:0E000000FF021F1EFF8985FF0FC00FE00F409B
:00000001FF
